:100000008DC30000A3C30000A1C300009FC3000074
:100010009DC300009BC3000099C3000097C300006C
:1000200095C3000093C3000091C300008FC300007C
:100030008DC300008BC300000C944A0887C30000E6
:1000400085C3000083C3000081C300007FC300009C
:100050007DC300007BC3000079C3000077C30000AC
:1000600075C3000073C3000071C300006FC30000BC
:100070006DC300006BC3000069C3000067C30000CC
:1000800065C3000063C3000061C300005FC30000DC
:1000900090C70000D8C7000059C3000057C3000034
:1000A00055C3000053C3000051C300004FC30000FC
:1000B0004DC300004BC3000049C300000C94370B34
:1000C00045C3000043C3000041C300003FC300001C
:1000D0003DC300003BC3000039C3000037C300002C
:1000E00035C3000033C3000031C300002FC300003C
:1000F0002DC300002BC3000029C3000027C300004C
:1001000025C3000023C3000021C300001FC300005B
:100110002DC7000071C7000019C3000017C30000FD
:1001200015C3000013C3000011C300000FC300007B
:100130000DC300000C94010909C3000007C30000AF
:1001400005C3000003C3000001C30000FFC200009C
:10015000FDC20000FBC20000F9C20000F7C20000AF
:10016000F5C20000F3C20000F1C20000EFC20000BF
:10017000EDC20000EBC20000E9C20000E7C20000CF
:100180000C944B0BE3C20000E1C20000DFC2000090
:10019000DDC20000DBC20000D9C20000D7C20000EF
:1001A000D5C20000D3C20000D1C20000CFC20000FF
:1001B000CDC20000CBC20000C9C20000C7C200000F
:1001C000C5C20000C3C20000C1C20000BFC200001F
:1001D000BDC20000BBC20000B9C20000B7C200002F
:1001E000B5C20000B3C20000B1C20000AFC200003F
:1001F000ADC20000ABC20000A9C200005C0E640EDC
:100200006B0E740E7B0E820E890E990EA90EB90E1E
:10021000110F110F110F110F110F110F110FC90E27
:10022000D90EE90EF90EFC0EFF0E020F050F080F96
:100230000B0F5B1235125C1238125C125C125C12EE
:100240005C125C125C125C125C125C125C125C123E
:100250005C125C125C125C125C125C125C125C122E
:100260002B1221121D122912171243125C124E1268
:100270005C125C125C125C12331251124F122D127E
:1002800047122F123C1234125C125C1259124512A2
:100290005C125C125C125C125C125C125C125C12EE
:1002A00032125C121B12571219125C125C125C1291
:1002B00006125C125C125C125C125C121F125C1261
:1002C0004B1231123F124572726F723A20496E63BF
:1002D0006F727265637420757365206F6620636F3B
:1002E0006D6D616E642E0D0A004572726F723A2058
:1002F000496E636F727265637420757365206F66F3
:1003000020636F6D6D616E642E0D0A004572726F11
:10031000723A20496E636F727265637420757365FB
:10032000206F6620636F6D6D616E642E0D0A00454F
:1003300072726F723A20496E636F727265637420D5
:10034000757365206F6620636F6D6D616E642E0D31
:100350000A004572726F723A20496E636F7272655D
:10036000637420757365206F6620636F6D6D616EB9
:10037000642E0D0A004572726F723A20496E636FE7
:10038000727265637420757365206F6620636F6D8C
:100390006D616E642E0D0A004572726F723A2049CB
:1003A0006E636F727265637420757365206F66206B
:1003B000636F6D6D616E642E0D0A004572726F720F
:1003C0003A20496E636F727265637420757365209D
:1003D0006F6620636F6D6D616E642E0D0A0045724D
:1003E000726F723A20496E636F7272656374207522
:1003F0007365206F6620636F6D6D616E642E0D0AEC
:10040000004572726F723A20496E636F7272656353
:100410007420757365206F6620636F6D6D616E6407
:100420002E0D0A004572726F723A20496E636F7228
:100430007265637420757365206F6620636F6D6DE0
:10044000616E642E0D0A004572726F723A20496E19
:10045000636F727265637420757365206F662063C5
:100460006F6D6D616E642E0D0A004572726F723A87
:1004700020496E636F727265637420757365206FB7
:100480006620636F6D6D616E642E0D0A0045727299
:100490006F723A20496E636F727265637420757370
:1004A00065206F6620636F6D6D616E642E0D0A00AE
:1004B0004572726F723A20496E636F72726563742F
:1004C00020757365206F6620636F6D6D616E642E9D
:1004D0000D0A004572726F723A20496E636F727234
:1004E00065637420757365206F6620636F6D6D6141
:1004F0006E642E0D0A004572726F723A20496E6367
:100500006F727265637420757365206F6620636F08
:100510006D6D616E642E0D0A004572726F723A2025
:10052000496E636F727265637420757365206F66C0
:1005300020636F6D6D616E642E0D0A004572726FDF
:10054000723A20496E636F727265637420757365C9
:10055000206F6620636F6D6D616E642E0D0A00451D
:1005600072726F723A20436F6D6D616E64206275B6
:1005700066666572206F76657272756E2C20636F89
:100580006D6D616E6420746F6F206C6F6E672E0DE1
:100590000A002A537973636F6D7020436972637523
:1005A000697447656172204D696E69205600457215
:1005B000726F723A20556E6B6E6F776E20636F6D3F
:1005C0006D616E643A20004572726F723A20496E16
:1005D000636F727265637420757365206F66206344
:1005E0006F6D6D616E642E0D0A004572726F723A06
:1005F00020496E636F727265637420757365206F36
:100600006620636F6D6D616E642E0D0A0045727217
:100610006F723A20496E636F7272656374207573EE
:1006200065206F6620636F6D6D616E642E0D0A002C
:100630004572726F723A20496E636F7272656374AD
:1006400020757365206F6620636F6D6D616E642E1B
:100650000D0A004572726F723A20496E636F7272B2
:1006600065637420757365206F6620636F6D6D61BF
:100670006E642E0D0A004572726F723A20496E63E5
:100680006F727265637420757365206F6620636F87
:100690006D6D616E642E0D0A004572726F723A20A4
:1006A000496E636F727265637420757365206F663F
:1006B00020636F6D6D616E642E0D0A004572726F5E
:1006C000723A20496E636F72726563742075736548
:1006D000206F6620636F6D6D616E642E0D0A00459C
:1006E00072726F723A20496E636F72726563742022
:1006F000757365206F6620636F6D6D616E642E0D7E
:100700000A004572726F723A20556E6B6E6F776E8B
:1007100020636F6D6D616E643A20000011241FBE6E
:10072000CFEFDFE3DEBFCDBF00E00CBF18BE19BEC8
:100730001ABE1BBE21E3A0E0B0E201C01D92A035AD
:10074000B207E1F70E94970C0C94C31259CCCF93D7
:10075000DF93F8941092000210924002C0E0D1E0C2
:10076000188A198A18A219A2E0E8F3E0108211820F
:10077000E0E9F3E010821182E0E0F8E010821682F6
:100780000E940D101B8A1BA2E0E0F9E01682109275
:100790001A2880E4E0E0F6E086837894DF91CF9138
:1007A00008951F93CF93DF931F921F92CDB7DEB7AB
:1007B0000E94A310E0914331F0E0EF5DF64D80819F
:1007C000803219F086EC92E035C00E94A310E091CF
:1007D0004331F0E0EF5DF64D10810E94A310E091EF
:1007E0004331F0E0EF5DF64D8081803219F089EE03
:1007F00092E020C00E94A310CE0101960E943B0D02
:100800008823D1F0113611F0113439F489819A819D
:1008100080933803909339030FC0123611F01234CD
:1008200039F489819A81809318039093190304C045
:100830008CE093E00E942E0D0F900F90DF91CF91EE
:100840001F910895CF93DF93E0E0F1E0D5E9D28BDB
:1008500080E2838B20E038E0248B358B81E499E2C1
:10086000848FAA2797FDA095BA2F492F5A2F6B2F57
:100870007727458FCD01AA27BB27868F84E6808FF7
:10088000C2E0C18F128ED2A380E183A324A335A33B
:1008900080E190E284A7AA2797FDA095BA2F492F5F
:1008A0005A2F6B2F772745A7CD01AA27BB2786A7ED
:1008B00084E280A7C1A712A6168A16A283818F6040
:1008C000838382E88083DF91CF91089540DF109287
:1008D0001A281092443180911C288630C0F5B2DF6E
:1008E0000E94290F10920A2021E020931A281092CA
:1008F00020081092210880E092E0809326089093CF
:10090000270883E08093060885E280931001809396
:100910002001809110018068809310018091200156
:10092000806880932001F894209300022093400275
:1009300078948DE08093800380938103809390036B
:100940008093910340910F20411117C01EC0109257
:1009500011281092122810921F2883E08093060914
:100960000E94290F80911B2881110E94061081E0AE
:100970008093400280930002089580912401909119
:10098000250181309440C8F707C0809114019091EF
:10099000150181309440C8F780911B2881115CC0FB
:1009A00050914D3180910B2090910C202091453138
:1009B00030914631511126C080931A0390931B0346
:1009C00020933A0330933B03442371F080918103D9
:1009D000806880938103809187038160809387037F
:1009E00080918003806F25C08091910380688093FF
:1009F0009103809197038160809397038091900386
:100A0000806F27C020931A0330931B0380933A030F
:100A100090933B03442381F080918103806C809309
:100A20008103809187038160809387038091800395
:100A3000806B80938003089580919103806C8093F4
:100A40009103809197038160809397038091900335
:100A5000806B8093900308950C940610CF93DF93DE
:100A600076DE10920D20A0E0B2E082E08C93E0E40C
:100A7000F2E0808314968C931497848311969C9152
:100A80001197977F11969C9311979181977F9183EE
:100A9000CFE3DFE12197F1F700C0000091E09C93E4
:100AA000908310924E3110924F3110921328109271
:100AB000142810921D28E0E0FAE08683DF91CF91A0
:100AC0000895E0E0FAE0168210921D28E0E0F2E0DE
:100AD000818188608183E0E4F2E0818188608183A4
:100AE0000895FC01DB01108211821D921C92119766
:100AF00088E090E02091230221602093230220913E
:100B000063022160209363022091200220682093D9
:100B1000200220916002206820936002209123022D
:100B200020FFFCCF2091630220FFFCCF40915002B8
:100B30005091510220813181240F351F2083318350
:100B400040911002509111022D913C911197240F68
:100B5000351F2D933C931197019761F68081918108
:100B600023E0969587952A95E1F7808391838D916F
:100B70009C91119733E0969587953A95E1F78D937F
:100B80009C93089520914E3130914F3180911328DC
:100B9000909114282817390709F03BC047C083E516
:100BA00047D7E0914E31F0914F31EE0FFF1FEF5BD1
:100BB000F64D81813DD7E0914E31F0914F31EE0FEE
:100BC000FF1FEF5BF64D808133D7E0914E31F091FE
:100BD0004F31EE0FFF1FE05FFF4D818129D7E0917C
:100BE0004E31F0914F31EE0FFF1FE05FFF4D8081DE
:100BF0001FD780914E3190914F31019680934E31A5
:100C000090934F318115944020F010924E31109204
:100C10004F3120914E3130914F3180911328909176
:100C200014282817390709F0BACF089583E700C7B9
:100C30000F93CF93DF931F92CDB7DEB72FB72983E2
:100C4000F8941BBEFC0108ED04BF608389818FBF4F
:100C50000F90DF91CF910F9108951F93CF93DF9362
:100C6000182FC0E4D0E06881687F682B80E490E0B2
:100C7000DFDF88818123DF91CF911F910895F89460
:100C800089E4D6D680911028D3D67894089580919F
:100C90004131909142310097B1F02091600A30913A
:100CA000610A2817390778F0909108078091102879
:100CB000981729F08091080780931028E0DF1092A0
:100CC000600A1092610A0895CF93DF931F921F92DA
:100CD000CDB7DEB70E94A310E0914331F0E0EF5DA5
:100CE000F64D8081803219F08FE293E009C00E94B6
:100CF000A310CE010196BFD6811104C082E593E016
:100D0000ADD603C08981809324070F900F90DF91A7
:100D1000CF910895CF93DF931F921F92CDB7DEB787
:100D20000E94A310E0914331F0E0EF5DF64D808129
:100D3000803219F085E793E009C00E94A310CE012C
:100D4000019699D6811104C088E993E087D606C040
:100D500089819A8180934131909342310F900F9015
:100D6000DF91CF91089590E1909346068093C30858
:100D70008091C20887FFFCCF8091C2088091C30890
:100D800080E180934506089580E1809346061092A5
:100D9000C3088091C20887FFFCCF8091C208809170
:100DA000C30890E1909345060895CF93DF931F9277
:100DB0001F92CDB7DEB70E94A310E0914331F0E05F
:100DC000EF5DF64D8081803219F08BEB93E009C026
:100DD0000E94A310CE0101964ED6811104C08EED63
:100DE00093E03CD60EC085E623D689819A81BC016A
:100DF0006F71772725E0969587952A95E1F743D07F
:100E000017D60F900F90DF91CF910895CF93DF9376
:100E100000D01F92CDB7DEB70E94A310E0914331FE
:100E2000F0E0EF5DF64D8081803219F081E094E0D2
:100E300011C00E94A310CE0103961DD6811103C0DC
:100E400084E294E007C0CE01019615D6811104C05A
:100E500087E494E003D60CC08B819C81BC016F7148
:100E6000772735E0969587953A95E1F749814ED0F9
:100E70002496CDBFDEBFDF91CF9108958091CF0141
:100E800087FDFCCF0895CF93DF931F921F92CDB7BC
:100E9000DEB76A838983F2DF6A816F71898120E21C
:100EA000829FC0011124862BE0ECF1E080839183C6
:100EB000128286E08287EF93FF930F932F93EBECE0
:100EC000F1E008ED21E004BF20832F910F91FF9105
:100ED000EF9184810F900F90DF91CF910895CEDF35
:100EE0008091CF0181FF11C086E38093CA01EF9307
:100EF000FF930F932F93EBECF1E008ED21E004BF9B
:100F000020832F910F91FF91EF910895CF93DF935D
:100F100000D0CDB7DEB74B836A838983E0DFE0EC96
:100F2000F1E093E392876A816F71898120E2829F69
:100F3000C0011124862B8083918312824B814483CC
:100F400085E38287EF93FF930F932F93EBECF1E010
:100F500008ED21E004BF20832F910F91FF91EF91C5
:100F60002396CDBFDEBFDF91CF9108951F920F92E0
:100F70000FB60F92112408B60F9218BE0BB60F923F
:100F80001BBE8F93EF93FF93E0E8F3E0108287811D
:100F900083608783818180638183FF91EF918F914B
:100FA0000F900BBE0F9008BE0F900FBE0F901F90BA
:100FB00018951F920F920FB60F92112408B60F9238
:100FC00018BE0BB60F921BBE8F93EF93FF93E0E911
:100FD000F3E01082878183608783818180638183CE
:100FE000FF91EF918F910F900BBE0F9008BE0F9065
:100FF0000FBE0F901F9018951F920F920FB60F9271
:10100000112408B60F9218BE0BB60F921BBE8F9319
:10101000EF93FF9382E080931A28E0E8F3E01182D7
:1010200080E4E0E0F6E085838AE080930008FF91A9
:10103000EF918F910F900BBE0F9008BE0F900FBED7
:101040000F901F9018951F920F920FB60F921124B8
:1010500008B60F9218BE0BB60F921BBE8F93EF937C
:10106000FF9382E080931A28E0E9F3E0118280E4A4
:10107000E0E0F6E0858389E080930008FF91EF913E
:101080008F910F900BBE0F9008BE0F900FBE0F9068
:101090001F9018951F920F920FB60F92112408B649
:1010A0000F9218BE09B60F9219BE0BB60F921BBE57
:1010B0002F933F934F935F936F937F938F939F9360
:1010C000AF93BF93EF93FF93109210011092200102
:1010D000109200081092060884E4AAD480911A287D
:1010E000A7D480911401909115019695879520E0E1
:1010F00034E0A901481B590B409300205093012074
:10110000809124019091250196958795281B390B94
:101110002093022030930320109204201092052087
:1011200051C080910020909101208115944020F0C1
:1011300010920020109201208091022090910320B3
:101140008115944020F010920220109203202091EB
:10115000002030910120F901EE0FFF1FEF5BF64DEB
:101160009081818190930620809307202F5F3F4FCD
:1011700020930020309301205BD48091062058D426
:101180002091022030910320F901EE0FFF1FE05F54
:10119000FF4D9081818190930620809307202F5FDF
:1011A0003F4F209302203093032042D480910620A9
:1011B0003FD48091042090910520019680930420D3
:1011C00090930520809104209091052081159440F2
:1011D00008F4A7CFFF91EF91BF91AF919F918F91AD
:1011E0007F916F915F914F913F912F910F900BBE27
:1011F0000F9009BE0F9008BE0F900FBE0F901F906A
:1012000018951F920F920FB60F92112408B60F92E5
:1012100018BE09B60F9219BE0AB60F921ABE0BB6C7
:101220000F921BBEDF92EF92FF920F931F932F93AB
:101230003F934F935F936F937F938F939F93AF935E
:10124000BF93CF93DF93EF93FF932091640230918C
:101250006502809124029091250240911F2843301D
:1012600009F4BCC020F44130A1F088F50CC0453031
:1012700009F448C108F400C1463009F46DC1473093
:1012800009F0D5C1A7C1109211281092122881E04F
:10129000CCC14091112850911228411562E05607A7
:1012A000A0F4BA01660F771FFB01EF5BF64D2083B8
:1012B0003183FB01E05FFF4D808391834F5F5F4F80
:1012C0004093112850931228B2C182E0AEC143E08E
:1012D00040931F284091112850911228BA01660F9F
:1012E000771FFB01EF5BF64D20833183FB01E05F4D
:1012F000FF4D808391834F5F5F4F40931128509340
:10130000122880911B28811192C18DE08093800367
:1013100080938103809390038093910340914D319A
:1013200080910B2090910C202091453130914631D5
:10133000411128C080931A0390931B0320933A0312
:1013400030933B0380910F20882371F080918103BB
:1013500080688093810380918703816080938703F5
:1013600080918003806C27C0809191038068809376
:1013700091038091970381608093970380919003FC
:10138000806C29C020931A0330931B0380933A0387
:1013900090933B0380910F20882381F080918103FB
:1013A000806C8093810380918703816080938703A1
:1013B0008091800380688093800339C1809191037C
:1013C000806C809391038091970381608093970351
:1013D0008091900380688093900329C141E04093FD
:1013E0001A284091112850911228BA01660F771FD0
:1013F000FB01EF5BF64D20833183FB01E05FFF4D86
:1014000080839183CA010196811524E0920728F414
:10141000809311289093122804C0109211281092E2
:1014200012288091443181116BC080911B28811159
:1014300021C080910F20882379F08091870380FF5D
:10144000F6C0809180038F70809380038091870322
:101450008360809387030EC08091970380FFE7C06D
:10146000809190038F7080939003809197038360A5
:101470008093970384E0D9C040911128509112289D
:10148000BA01660F771FFB01EF5BF64D20833183B6
:10149000FB01E05FFF4D80839183CA0101968115B6
:1014A00044E0940728F4809311289093122804C0F4
:1014B000109211281092122880914431811120C07D
:1014C00080911B288111B3C080910F20882351F097
:1014D0008091870381FFABC0809181038F708093DF
:1014E000810309C08091970381FFA1C0809191037E
:1014F0008F7080939103809197038360809397030B
:1015000085E093C04091112850911228BA01660FCE
:10151000771FFB01EF5BF64D20833183FB01E05F1A
:10152000FF4D80839183CA010196811564E096077F
:1015300028F4809311289093122804C01092112847
:101540001092122886E080931F2881E090E080931B
:101550001528909316286BC040914431411103C067
:1015600042E040931A2840911B28442319F042E09E
:1015700040931A2840E44093050640911128509169
:101580001228BA01660F771FFB01EF5BF64D20832F
:101590003183FB01E05FFF4D808391839A012F5FD0
:1015A0003F4F209311283093122880911528909155
:1015B00016280196809315289093162821153440FB
:1015C00020F010921128109212288115924078F183
:1015D00087E02BC0C0911128D091122810920609E3
:1015E00084E426D280911A2823D200E014E0C115A9
:1015F00084E0D80710F0C0E0D0E07E01EE0CFF1CC4
:10160000F701EF5BF64DD080818112D28D2D10D283
:10161000F701E05FFF4DF08081810AD28F2D08D263
:1016200021960150110919F788E080931F28FF9136
:10163000EF91DF91CF91BF91AF919F918F917F916A
:101640006F915F914F913F912F911F910F91FF905B
:10165000EF90DF900F900BBE0F900ABE0F9009BE67
:101660000F9008BE0F900FBE0F901F9018951F92FD
:101670000F920FB60F92112408B60F9218BE8F93D7
:1016800081E080931D288F910F9008BE0F900FBEB0
:101690000F901F9018951F920F920FB60F92112462
:1016A00008B60F9218BE09B60F9219BE0BB60F926C
:1016B0001BBE2F933F934F935F936F937F938F93B3
:1016C0009F93AF93BF93EF93FF93ACD4FF91EF91B0
:1016D000BF91AF919F918F917F916F915F914F914A
:1016E0003F912F910F900BBE0F9009BE0F9008BE37
:1016F0000F900FBE0F901F901895AAECB1E092E0EA
:101700009C93E82FF0E084911C920895CF92DF9291
:10171000EF92FF920F931F93CF93DF93809150002E
:101720008260809350008091510081FFFCCF81E066
:1017300094DA109204068CE480930006109224063A
:101740008CE08093200610E110933606109330064B
:101750008CE1809344068FEB8093400610926406E0
:101760001092600682E0F82EF09284068AE8809358
:10177000800610939606109395061093940681E4C4
:101780008093A00690E4E92EE092A40608E100937D
:10179000B7060093B5060093B4060093B306009312
:1017A000B2060093B1061092E0061093F006109373
:1017B000F1061093F3061093F4061093F5061093B8
:1017C000F6061093F706109200078FEF809320071C
:1017D0001092C0071093D0071093D1071093D2072F
:1017E0001093D3071092E0071093F0071093F107BE
:1017F00080E383DF8093090381E37FDF8093080325
:1018000084E37BDF80930B0385E377DF80930A0318
:101810002DE0C22EC0920003E09201031093020358
:1018200030E5D32ED0920403C0E0D8E0C093180373
:10183000D0931903C0931A03D0931B0382E35DDF97
:101840008093290383E359DF8093280386E355DFE0
:1018500080932B0387E351DF80932A03C0922003F8
:10186000E092210310932203D0922403C093380303
:10187000D0933903C0933A03D0933B0380E23DDF1A
:1018800080930C0281E239DF80930D02C1E0C093A6
:10189000000200930102D0E2D0930202F09204020F
:1018A000F092200211E21093210284E226DF80935D
:1018B0004C0285E222DF80934D02C09340020093E8
:1018C0004102D0934202F0924402F09260021093DF
:1018D000610284E280938101D093820193E290932C
:1018E000820380938303909392038093930327E072
:1018F0002093000A81E792E08093260A9093270ABA
:101900001092600A1092610A2093400A81E5809348
:10191000C008C093F2062093A2007894DF91CF9183
:101920001F910F91FF90EF90DF90CF900895CF938C
:10193000DF9300D01F92CDB7DEB7E8DE10920E2005
:1019400010922029109243311092172810920D20E6
:1019500010921E2881E090E080934B3190934C319F
:1019600010924D3110920F2010921C2889E09DE3B7
:10197000809341319093423110921B28109208209D
:1019800010920920109218281092192880910807A7
:101990008093102874D900E315E7FF24F394A9D3AA
:1019A00080910E20882321F01ED510920E2095D311
:1019B00080911D28882359F1BE016F5F7F4FCE01B2
:1019C00003968FD880911328909114289C01220FA0
:1019D000331FF901EF5BF64D4B815C8140835183EE
:1019E000F901E05FFF4D49815A814083518301969F
:1019F000811524E0920728F48093132890931428EB
:101A000004C0109213281092142810921D2847D356
:101A10003ED98091A40680FFC2CF0230110518F094
:101A200001501109BCCFF092A60600E315E7B7CF2D
:101A300092E0909385069FEF9093600690918806C0
:101A400090FDFCCF98E09093850680936406909378
:101A5000860610926406109260060895CF93DF9375
:101A6000EC0101C0E5DFFE01219684918111FACFDE
:101A7000DF91CF910895CF92DF92EF92FF920F9373
:101A80001F93CF93DF931F92CDB7DEB76C01E09128
:101A90004331F0E0EF5DF64D108110531B3008F438
:101AA000B1C080E0E8C00A3011F00D3021F4F60139
:101AB0001083118216C000530B3008F4AEC0F1CF72
:101AC0008A3011F08D3081F4F6010083118207C055
:101AD000F601808191810A968083918311501111C2
:101AE000F7CF31D381E0C7C020EDF22EF80EFAE037
:101AF000FF1508F09DC0D5CF8A3011F08D30C9F4A4
:101B0000F601F082118207C0F601808191810A9668
:101B10008083918301500111F7CF08C0F6018081C5
:101B200091818C599F4F8083918311501111F6CF71
:101B3000D8CF90EDE92EE80EFAE0FE1508F083C04C
:101B4000B0CF8A3011F08D3021F5F601E08211829C
:101B500007C0F601808191810A9680839183FA946F
:101B6000F110F7CF08C0F601808191818C599F4F09
:101B70008083918301500111F6CF08C0F601808166
:101B8000918188519C4F8083918311501111F6CF20
:101B9000A8CF80538B3008F461C083CF9A3019F0FE
:101BA0009D3009F07ECFF6018083118207C0F601D7
:101BB000808191810A9680839183EA94E110F7CF26
:101BC00008C0F601808191818C599F4F8083918359
:101BD000FA94F110F6CF08C0F60180819181885106
:101BE0009C4F8083918301500111F6CF08C0F6010C
:101BF00080819181805F984D808391831150111174
:101C0000F6CF6FCFA0D2E0914331F0E0EF5DF64D1B
:101C10000081003209F047CF4ACF95D2E09143319D
:101C2000F0E0EF5DF64D8081803209F049CF4CCF76
:101C30008AD2E0914331F0E0EF5DF64D8081803251
:101C400009F05ACF5DCF7FD2E0914331F0E0EF5DF4
:101C5000F64D8081803209F074CF77CF898373D2BB
:101C6000E0914331F0E0EF5DF64D90818981903253
:101C700009F094CF98CF0F90DF91CF911F910F91E2
:101C8000FF90EF90DF90CF900895CF93DF931F9256
:101C9000CDB7DEB789830E94A7031092000210928D
:101CA0004002898190E0FC01F097EB31F10508F0EA
:101CB000B8C0E250FF4F61C482E080930402809379
:101CC000440210921C28ADC083E0809304028093EC
:101CD000440281E006C084E08093040280934402C1
:101CE00082E080931C289DC085E08093040280934D
:101CF000440283E0F6CF86E080930402809344029E
:101D000084E0EFCF87E0809304028093440285E073
:101D1000E8CF82E0809304028093440281E08093C4
:101D2000000981E792E0809326099093270986E0D5
:101D3000D8CF82E0809304028093440281E08093B4
:101D4000000982EE94E0809326099093270987E0AA
:101D5000C8CF82E0809304028093440281E08093A4
:101D6000000985E39CE0809326099093270988E089
:101D7000B8CF82E0809304028093440281E0809394
:101D800000098AE698E1809326099093270989E063
:101D9000A8CF82E0809304028093440281E0809384
:101DA000000984ED90E380932609909327098AE047
:101DB00098CF82E0809304028093440281E0809374
:101DC000000982E19AE780932609909327098BE026
:101DD00088CF82E0809304028093440281E0809364
:101DE000000984E294EF80932609909327098CE000
:101DF00078CF81E792E011C08AE196E00EC085E3DA
:101E00009CE00BC08AE698E108C089E09DE305C02C
:101E100082E19AE702C084E294EF8093260A9093CD
:101E2000270A81E080930002809340020F90DF91A7
:101E3000CF910895E0E4F8E010A211A210921E28BC
:101E400081E080930D20089510921E2810920D209D
:101E50000895E0E4F8E010A211A287E080831092D8
:101E60001E280895CF93DF931F921F92CDB7DEB740
:101E70006AD1E0914331F0E0EF5DF64D8081803230
:101E800019F08AE694E008C05ED1CE010196F3DD38
:101E9000811104C08DE894E0E1DD06C089819A815A
:101EA00080934B3190934C310F900F90DF91CF91F5
:101EB0000895CF93DF931F921F92CDB7DEB743D122
:101EC000E0914331F0E0EF5DF64D8081803219F012
:101ED00080EB94E008C037D1CE010196CCDD8111B2
:101EE00004C083ED94E0BADD30C049815A8140934B
:101EF00047315093483180911828909119289A01C0
:101F0000281B390B209345313093463180910820AE
:101F100090910920840F951F80930B2090930C20A3
:101F200040914D31411109C080931A0390931B03D6
:101F300020933A0330933B0308C020931A03309355
:101F40001B0380933A0390933B030F900F90DF9114
:101F5000CF910895CF93DF9300D01F92CDB7DEB716
:101F6000F2D0E0914331F0E0EF5DF64D80818032B8
:101F700019F086EF94E010C0E6D0CE0103967BDD29
:101F8000811103C089E195E007C0CE01019673DDA0
:101F9000811104C08CE395E061DD32C08B819C81AE
:101FA000809308209093092029813A812093182852
:101FB000309319284091473150914831BA01621B42
:101FC000730B6093453170934631840F951F809356
:101FD0000B2090930C2040914D31411109C080930A
:101FE0001A0390931B0360933A0370933B0308C05A
:101FF00060931A0370931B0380933A0390933B03FF
:102000002496CDBFDEBFDF91CF910895E0EEF6E0DC
:1020100084E0828782E081870895E0EEF6E0128610
:1020200011860895FADF80911A288230B8F5F89465
:1020300081E08093443180E48093050683E08093BF
:102040001A2880911C28863008F027C080918003D0
:102050008F7080938003809181038F7080938103C0
:10206000809190038F7080939003809191038F7083
:10207000809391038091870383608093870380918D
:10208000970383608093970380910F20882311F03A
:102090008AE001C089E080930008789408958091D7
:1020A0000D208823C9F080911E28811115C0209130
:1020B00060083091610880914B3190914C31281724
:1020C000390750F01092400881E080931E288091DB
:1020D0001A28823008F4A6CF0895E1E2F9E21192BD
:1020E00089E2E134F807D9F71092433110922029A0
:1020F00008958091202992E01FC01092600690936D
:102100008606E82FF0E020916806EF5DF64D20830B
:102110009093850620812A3031F48093202981E034
:1021200080930E2008958F5F803231F480932029B0
:102130008FE595E093DCD1CF2091880622FFDDCF9B
:10214000809320290895809143318F3118F48F5F57
:102150008093433108950F931F93CF93DF9300D063
:1021600000D0CDB7DEB7E0914331F0E0EF5DF64D42
:102170008081803509F462C088F4843409F469C030
:1021800038F4813409F441C0833409F0CEC07DC0F5
:102190008634B1F08F3409F0C8C042C0873509F4E5
:1021A0004AC038F4823509F4A9C0833509F0BDC0AE
:1021B00061C0883509F49EC0833609F0B6C07FC07F
:1021C000C2DFCE01059657DC811103C087EC95E094
:1021D00007C0CE0103964FDC811104C08AEE95E062
:1021E0003DDCAFC0CE01019646DC811103C08DE01D
:1021F00096E0F6CF86E40E94B3068D810E94B30676
:102200008B810E94B306898176C09DDFCE01019645
:1022100032DC811103C080E396E0E2CF81E423C089
:1022200092DFCE01019627DC811103C083E596E0A1
:10223000D7CF8FE418C087DF87E51EC084DFCE01CB
:10224000019619DC811103C086E796E0C9CF80E5CD
:102250000AC079DFCE0101960EDC811103C089E945
:1022600096E0BECF84E40E94B30689810E94B30643
:102270008A8141C068DF83E50E94B306E091433163
:10228000F0E0EF5DF64D808136C05DDFCE01019656
:10229000F2DB811103C08CEB96E0A2CF09811A8199
:1022A000CE010196E8DB811103C08FED96E098CF57
:1022B000F801FF27E05EF74D8981808342C083E605
:1022C0000E94B30619821A8210E00DC0E12FF0E0DF
:1022D000E05EF74D1F5F80810E94B30689819A817D
:1022E000019689839A8389819A818F3F910571F341
:1022F00068F327C088E50E94B30623C082E50E94E8
:10230000B30687E595DB19821A8208C00E94C406CD
:102310008FDB89819A81019689839A8389819A8149
:102320008F3F910599F390F30CC082E097E096DB24
:10233000E0914331F0E0EF5DF64D808179DB8AE09A
:1023400077DB2696CDBFDEBFDF91CF911F910F9136
:10235000089582E46DDB84E46BDB89E269DB83E270
:1023600067DB8DE065DB8AE063DB10920E20B5DE73
:1023700001C0BFDE80910E208823D9F3E091433164
:10238000F0E0EF5DF64D8081803989F085E450DB27
:1023900080E94EDB87E44CDBE0914331F0E0EF5D18
:1023A000F64D808145DB8DE043DB8AE041CB82E660
:1023B0003FDB8DE03DDB8AE03BDB4FEF6DE18FE102
:1023C0000E9486074FEF6EE18FE10E9486074FEF74
:1023D0006FE18FE10E94860728ED41E020933400F1
:1023E00040937900089581E08093A506E091433100
:1023F000F0E0EF5DF64D808190E0FC01BA97EA34A1
:10240000F10508F059C0E75EFE4FB7C082E995E0DC
:1024100025DB81E30DDB8EE20BDB82E309DB8EE261
:1024200007DB89E60E94B3060E94C4064EC00C94E6
:1024300006070C94D5060C9466040C942E050C9497
:10244000D10381DEE0914331F0E0EF5DF64D808114
:102450001CCC79DE3DC077DE54C075DE6BC0EADC93
:10246000F8CCF2CCFFCCDECD24CD10924D310895C6
:1024700081E080934D31089510920F20089581E0FE
:1024800080930F2008950C94C2050C94610581E09F
:1024900080931B28089510921B2808955BCD0C94FF
:1024A000640680910807809310280C943F060C94D2
:1024B0008A0649DE50CE4DCF8EEA95E0CFDAE09124
:1024C0004331F0E0EF5DF64D8081B2DA8AE0B0CAC8
:1024D000E0914331F0E0EF5DF64D8081803281F490
:1024E00032DEE0914331F0E0EF5DF64D80818234E1
:1024F00011F484E003C0813419F488E08093450628
:102500000895E0914331F0E0EF5DF64D8081803237
:1025100081F419DEE0914331F0E0EF5DF64D80810A
:10252000823411F484E003C0813419F488E080938C
:1025300046060895E0914331F0E0EF5DF64D80816D
:102540008032D1F400DEE0914331F0E0EF5DF64DF2
:102550008081823411F481E007C0823611F481E079
:1025600009C0813421F482E08093460608958136C3
:1025700019F482E0809345060895EE0FFF1F059041
:0A258000F491E02D1994F894FFCFB8
:00000001FF
